{
  "_format": "hh-sol-artifact-1",
  "contractName": "ProductTracking",
  "sourceName": "contracts/ProductTracking.sol",
  "abi": [
    {
      "anonymous": false,
      "inputs": [
        {
          "indexed": false,
          "internalType": "address",
          "name": "from",
          "type": "address"
        },
        {
          "indexed": false,
          "internalType": "address",
          "name": "to",
          "type": "address"
        },
        {
          "indexed": false,
          "internalType": "uint256",
          "name": "amount",
          "type": "uint256"
        }
      ],
      "name": "PaymentSent",
      "type": "event"
    },
    {
      "anonymous": false,
      "inputs": [
        {
          "indexed": false,
          "internalType": "string",
          "name": "id",
          "type": "string"
        },
        {
          "indexed": false,
          "internalType": "address",
          "name": "actor",
          "type": "address"
        },
        {
          "indexed": false,
          "internalType": "string",
          "name": "status",
          "type": "string"
        },
        {
          "indexed": false,
          "internalType": "uint256",
          "name": "timestamp",
          "type": "uint256"
        }
      ],
      "name": "ProductStatusUpdated",
      "type": "event"
    },
    {
      "inputs": [
        {
          "internalType": "string",
          "name": "id",
          "type": "string"
        },
        {
          "internalType": "string",
          "name": "name",
          "type": "string"
        },
        {
          "internalType": "string",
          "name": "manufacturerName",
          "type": "string"
        },
        {
          "internalType": "uint256",
          "name": "price",
          "type": "uint256"
        }
      ],
      "name": "addProduct",
      "outputs": [],
      "stateMutability": "nonpayable",
      "type": "function"
    },
    {
      "inputs": [
        {
          "internalType": "bool",
          "name": "isDistributor",
          "type": "bool"
        }
      ],
      "name": "findProductsAssignedToDistributorOrRetailer",
      "outputs": [
        {
          "components": [
            {
              "internalType": "string",
              "name": "id",
              "type": "string"
            },
            {
              "internalType": "string",
              "name": "name",
              "type": "string"
            },
            {
              "internalType": "address",
              "name": "manufacturer",
              "type": "address"
            },
            {
              "internalType": "string",
              "name": "manufacturerName",
              "type": "string"
            },
            {
              "internalType": "address",
              "name": "distributor",
              "type": "address"
            },
            {
              "internalType": "string",
              "name": "distributorName",
              "type": "string"
            },
            {
              "internalType": "address",
              "name": "retailer",
              "type": "address"
            },
            {
              "internalType": "string",
              "name": "retailerName",
              "type": "string"
            },
            {
              "internalType": "address",
              "name": "customer",
              "type": "address"
            },
            {
              "internalType": "string",
              "name": "status",
              "type": "string"
            },
            {
              "internalType": "uint256",
              "name": "timestamp",
              "type": "uint256"
            },
            {
              "internalType": "uint256",
              "name": "price",
              "type": "uint256"
            }
          ],
          "internalType": "struct ProductTracking.Product[]",
          "name": "",
          "type": "tuple[]"
        }
      ],
      "stateMutability": "view",
      "type": "function"
    },
    {
      "inputs": [
        {
          "internalType": "string",
          "name": "status",
          "type": "string"
        }
      ],
      "name": "findProductsByStatus",
      "outputs": [
        {
          "components": [
            {
              "internalType": "string",
              "name": "id",
              "type": "string"
            },
            {
              "internalType": "string",
              "name": "name",
              "type": "string"
            },
            {
              "internalType": "address",
              "name": "manufacturer",
              "type": "address"
            },
            {
              "internalType": "string",
              "name": "manufacturerName",
              "type": "string"
            },
            {
              "internalType": "address",
              "name": "distributor",
              "type": "address"
            },
            {
              "internalType": "string",
              "name": "distributorName",
              "type": "string"
            },
            {
              "internalType": "address",
              "name": "retailer",
              "type": "address"
            },
            {
              "internalType": "string",
              "name": "retailerName",
              "type": "string"
            },
            {
              "internalType": "address",
              "name": "customer",
              "type": "address"
            },
            {
              "internalType": "string",
              "name": "status",
              "type": "string"
            },
            {
              "internalType": "uint256",
              "name": "timestamp",
              "type": "uint256"
            },
            {
              "internalType": "uint256",
              "name": "price",
              "type": "uint256"
            }
          ],
          "internalType": "struct ProductTracking.Product[]",
          "name": "",
          "type": "tuple[]"
        }
      ],
      "stateMutability": "view",
      "type": "function"
    },
    {
      "inputs": [],
      "name": "findProductsForCustomer",
      "outputs": [
        {
          "components": [
            {
              "internalType": "string",
              "name": "id",
              "type": "string"
            },
            {
              "internalType": "string",
              "name": "name",
              "type": "string"
            },
            {
              "internalType": "address",
              "name": "manufacturer",
              "type": "address"
            },
            {
              "internalType": "string",
              "name": "manufacturerName",
              "type": "string"
            },
            {
              "internalType": "address",
              "name": "distributor",
              "type": "address"
            },
            {
              "internalType": "string",
              "name": "distributorName",
              "type": "string"
            },
            {
              "internalType": "address",
              "name": "retailer",
              "type": "address"
            },
            {
              "internalType": "string",
              "name": "retailerName",
              "type": "string"
            },
            {
              "internalType": "address",
              "name": "customer",
              "type": "address"
            },
            {
              "internalType": "string",
              "name": "status",
              "type": "string"
            },
            {
              "internalType": "uint256",
              "name": "timestamp",
              "type": "uint256"
            },
            {
              "internalType": "uint256",
              "name": "price",
              "type": "uint256"
            }
          ],
          "internalType": "struct ProductTracking.Product[]",
          "name": "",
          "type": "tuple[]"
        }
      ],
      "stateMutability": "view",
      "type": "function"
    },
    {
      "inputs": [],
      "name": "findProductsForDistributor",
      "outputs": [
        {
          "components": [
            {
              "internalType": "string",
              "name": "id",
              "type": "string"
            },
            {
              "internalType": "string",
              "name": "name",
              "type": "string"
            },
            {
              "internalType": "address",
              "name": "manufacturer",
              "type": "address"
            },
            {
              "internalType": "string",
              "name": "manufacturerName",
              "type": "string"
            },
            {
              "internalType": "address",
              "name": "distributor",
              "type": "address"
            },
            {
              "internalType": "string",
              "name": "distributorName",
              "type": "string"
            },
            {
              "internalType": "address",
              "name": "retailer",
              "type": "address"
            },
            {
              "internalType": "string",
              "name": "retailerName",
              "type": "string"
            },
            {
              "internalType": "address",
              "name": "customer",
              "type": "address"
            },
            {
              "internalType": "string",
              "name": "status",
              "type": "string"
            },
            {
              "internalType": "uint256",
              "name": "timestamp",
              "type": "uint256"
            },
            {
              "internalType": "uint256",
              "name": "price",
              "type": "uint256"
            }
          ],
          "internalType": "struct ProductTracking.Product[]",
          "name": "",
          "type": "tuple[]"
        }
      ],
      "stateMutability": "view",
      "type": "function"
    },
    {
      "inputs": [],
      "name": "findProductsForManufacturer",
      "outputs": [
        {
          "components": [
            {
              "internalType": "string",
              "name": "id",
              "type": "string"
            },
            {
              "internalType": "string",
              "name": "name",
              "type": "string"
            },
            {
              "internalType": "address",
              "name": "manufacturer",
              "type": "address"
            },
            {
              "internalType": "string",
              "name": "manufacturerName",
              "type": "string"
            },
            {
              "internalType": "address",
              "name": "distributor",
              "type": "address"
            },
            {
              "internalType": "string",
              "name": "distributorName",
              "type": "string"
            },
            {
              "internalType": "address",
              "name": "retailer",
              "type": "address"
            },
            {
              "internalType": "string",
              "name": "retailerName",
              "type": "string"
            },
            {
              "internalType": "address",
              "name": "customer",
              "type": "address"
            },
            {
              "internalType": "string",
              "name": "status",
              "type": "string"
            },
            {
              "internalType": "uint256",
              "name": "timestamp",
              "type": "uint256"
            },
            {
              "internalType": "uint256",
              "name": "price",
              "type": "uint256"
            }
          ],
          "internalType": "struct ProductTracking.Product[]",
          "name": "",
          "type": "tuple[]"
        }
      ],
      "stateMutability": "view",
      "type": "function"
    },
    {
      "inputs": [],
      "name": "findProductsForRetailer",
      "outputs": [
        {
          "components": [
            {
              "internalType": "string",
              "name": "id",
              "type": "string"
            },
            {
              "internalType": "string",
              "name": "name",
              "type": "string"
            },
            {
              "internalType": "address",
              "name": "manufacturer",
              "type": "address"
            },
            {
              "internalType": "string",
              "name": "manufacturerName",
              "type": "string"
            },
            {
              "internalType": "address",
              "name": "distributor",
              "type": "address"
            },
            {
              "internalType": "string",
              "name": "distributorName",
              "type": "string"
            },
            {
              "internalType": "address",
              "name": "retailer",
              "type": "address"
            },
            {
              "internalType": "string",
              "name": "retailerName",
              "type": "string"
            },
            {
              "internalType": "address",
              "name": "customer",
              "type": "address"
            },
            {
              "internalType": "string",
              "name": "status",
              "type": "string"
            },
            {
              "internalType": "uint256",
              "name": "timestamp",
              "type": "uint256"
            },
            {
              "internalType": "uint256",
              "name": "price",
              "type": "uint256"
            }
          ],
          "internalType": "struct ProductTracking.Product[]",
          "name": "",
          "type": "tuple[]"
        }
      ],
      "stateMutability": "view",
      "type": "function"
    },
    {
      "inputs": [],
      "name": "getAllProducts",
      "outputs": [
        {
          "components": [
            {
              "internalType": "string",
              "name": "id",
              "type": "string"
            },
            {
              "internalType": "string",
              "name": "name",
              "type": "string"
            },
            {
              "internalType": "address",
              "name": "manufacturer",
              "type": "address"
            },
            {
              "internalType": "string",
              "name": "manufacturerName",
              "type": "string"
            },
            {
              "internalType": "address",
              "name": "distributor",
              "type": "address"
            },
            {
              "internalType": "string",
              "name": "distributorName",
              "type": "string"
            },
            {
              "internalType": "address",
              "name": "retailer",
              "type": "address"
            },
            {
              "internalType": "string",
              "name": "retailerName",
              "type": "string"
            },
            {
              "internalType": "address",
              "name": "customer",
              "type": "address"
            },
            {
              "internalType": "string",
              "name": "status",
              "type": "string"
            },
            {
              "internalType": "uint256",
              "name": "timestamp",
              "type": "uint256"
            },
            {
              "internalType": "uint256",
              "name": "price",
              "type": "uint256"
            }
          ],
          "internalType": "struct ProductTracking.Product[]",
          "name": "",
          "type": "tuple[]"
        }
      ],
      "stateMutability": "view",
      "type": "function"
    },
    {
      "inputs": [
        {
          "internalType": "string",
          "name": "",
          "type": "string"
        }
      ],
      "name": "products",
      "outputs": [
        {
          "internalType": "string",
          "name": "id",
          "type": "string"
        },
        {
          "internalType": "string",
          "name": "name",
          "type": "string"
        },
        {
          "internalType": "address",
          "name": "manufacturer",
          "type": "address"
        },
        {
          "internalType": "string",
          "name": "manufacturerName",
          "type": "string"
        },
        {
          "internalType": "address",
          "name": "distributor",
          "type": "address"
        },
        {
          "internalType": "string",
          "name": "distributorName",
          "type": "string"
        },
        {
          "internalType": "address",
          "name": "retailer",
          "type": "address"
        },
        {
          "internalType": "string",
          "name": "retailerName",
          "type": "string"
        },
        {
          "internalType": "address",
          "name": "customer",
          "type": "address"
        },
        {
          "internalType": "string",
          "name": "status",
          "type": "string"
        },
        {
          "internalType": "uint256",
          "name": "timestamp",
          "type": "uint256"
        },
        {
          "internalType": "uint256",
          "name": "price",
          "type": "uint256"
        }
      ],
      "stateMutability": "view",
      "type": "function"
    },
    {
      "inputs": [
        {
          "internalType": "string",
          "name": "id",
          "type": "string"
        }
      ],
      "name": "purchaseCustomer",
      "outputs": [],
      "stateMutability": "payable",
      "type": "function"
    },
    {
      "inputs": [
        {
          "internalType": "string",
          "name": "id",
          "type": "string"
        }
      ],
      "name": "purchaseDistributor",
      "outputs": [],
      "stateMutability": "payable",
      "type": "function"
    },
    {
      "inputs": [
        {
          "internalType": "string",
          "name": "id",
          "type": "string"
        }
      ],
      "name": "purchaseRetailer",
      "outputs": [],
      "stateMutability": "payable",
      "type": "function"
    },
    {
      "inputs": [
        {
          "internalType": "string",
          "name": "distributorName",
          "type": "string"
        },
        {
          "internalType": "string",
          "name": "id",
          "type": "string"
        },
        {
          "internalType": "address",
          "name": "distributorAdd",
          "type": "address"
        }
      ],
      "name": "setDistributor",
      "outputs": [],
      "stateMutability": "nonpayable",
      "type": "function"
    },
    {
      "inputs": [
        {
          "internalType": "string",
          "name": "retailerName",
          "type": "string"
        },
        {
          "internalType": "string",
          "name": "id",
          "type": "string"
        },
        {
          "internalType": "address",
          "name": "retailerAdd",
          "type": "address"
        }
      ],
      "name": "setRetailer",
      "outputs": [],
      "stateMutability": "nonpayable",
      "type": "function"
    }
  ],
  "bytecode": "0x608060405234801561001057600080fd5b50615c0b80620000216000396000f3fe6080604052600436106100dd5760003560e01c806334ca62a81161007f5780638165fed5116100595780638165fed5146102af5780638708150a146102d8578063aa2adc7614610303578063afa9fe7a1461032e576100dd565b806334ca62a81461020a578063424ec8f914610247578063444dd4ec14610284576100dd565b8063252a6ba4116100bb578063252a6ba41461018057806328feaced1461019c57806329f8a0cb146101c55780632f50dfeb146101e1576100dd565b80630186a423146100e257806302ee3a521461012a5780630f05df5614610155575b600080fd5b3480156100ee57600080fd5b5061010960048036038101906101049190614818565b61034a565b6040516101219c9b9a9998979695949392919061493a565b60405180910390f35b34801561013657600080fd5b5061013f610770565b60405161014c9190614c6f565b60405180910390f35b34801561016157600080fd5b5061016a610ca8565b6040516101779190614c6f565b60405180910390f35b61019a60048036038101906101959190614818565b611322565b005b3480156101a857600080fd5b506101c360048036038101906101be9190614cbd565b6115d0565b005b6101df60048036038101906101da9190614818565b611754565b005b3480156101ed57600080fd5b5061020860048036038101906102039190614cbd565b611a02565b005b34801561021657600080fd5b50610231600480360381019061022c9190614d80565b611b86565b60405161023e9190614c6f565b60405180910390f35b34801561025357600080fd5b5061026e60048036038101906102699190614818565b6122e9565b60405161027b9190614c6f565b60405180910390f35b34801561029057600080fd5b50610299612964565b6040516102a69190614c6f565b60405180910390f35b3480156102bb57600080fd5b506102d660048036038101906102d19190614dd9565b612fde565b005b3480156102e457600080fd5b506102ed613553565b6040516102fa9190614c6f565b60405180910390f35b34801561030f57600080fd5b50610318613bcd565b6040516103259190614c6f565b60405180910390f35b61034860048036038101906103439190614818565b614247565b005b60008180516020810182018051848252602083016020850120818352809550505050505060009150905080600001805461038390614ec3565b80601f01602080910402602001604051908101604052809291908181526020018280546103af90614ec3565b80156103fc5780601f106103d1576101008083540402835291602001916103fc565b820191906000526020600020905b8154815290600101906020018083116103df57829003601f168201915b50505050509080600101805461041190614ec3565b80601f016020809104026020016040519081016040528092919081815260200182805461043d90614ec3565b801561048a5780601f1061045f5761010080835404028352916020019161048a565b820191906000526020600020905b81548152906001019060200180831161046d57829003601f168201915b5050505050908060020160009054906101000a900473ffffffffffffffffffffffffffffffffffffffff16908060030180546104c590614ec3565b80601f01602080910402602001604051908101604052809291908181526020018280546104f190614ec3565b801561053e5780601f106105135761010080835404028352916020019161053e565b820191906000526020600020905b81548152906001019060200180831161052157829003601f168201915b5050505050908060040160009054906101000a900473ffffffffffffffffffffffffffffffffffffffff169080600501805461057990614ec3565b80601f01602080910402602001604051908101604052809291908181526020018280546105a590614ec3565b80156105f25780601f106105c7576101008083540402835291602001916105f2565b820191906000526020600020905b8154815290600101906020018083116105d557829003601f168201915b5050505050908060060160009054906101000a900473ffffffffffffffffffffffffffffffffffffffff169080600701805461062d90614ec3565b80601f016020809104026020016040519081016040528092919081815260200182805461065990614ec3565b80156106a65780601f1061067b576101008083540402835291602001916106a6565b820191906000526020600020905b81548152906001019060200180831161068957829003601f168201915b5050505050908060080160009054906101000a900473ffffffffffffffffffffffffffffffffffffffff16908060090180546106e190614ec3565b80601f016020809104026020016040519081016040528092919081815260200182805461070d90614ec3565b801561075a5780601f1061072f5761010080835404028352916020019161075a565b820191906000526020600020905b81548152906001019060200180831161073d57829003601f168201915b50505050509080600a01549080600b015490508c565b60606001805480602002602001604051908101604052809291908181526020016000905b82821015610c9f57838290600052602060002090600c0201604051806101800160405290816000820180546107c890614ec3565b80601f01602080910402602001604051908101604052809291908181526020018280546107f490614ec3565b80156108415780601f1061081657610100808354040283529160200191610841565b820191906000526020600020905b81548152906001019060200180831161082457829003601f168201915b5050505050815260200160018201805461085a90614ec3565b80601f016020809104026020016040519081016040528092919081815260200182805461088690614ec3565b80156108d35780601f106108a8576101008083540402835291602001916108d3565b820191906000526020600020905b8154815290600101906020018083116108b657829003601f168201915b505050505081526020016002820160009054906101000a900473ffffffffffffffffffffffffffffffffffffffff1673ffffffffffffffffffffffffffffffffffffffff1673ffffffffffffffffffffffffffffffffffffffff16815260200160038201805461094290614ec3565b80601f016020809104026020016040519081016040528092919081815260200182805461096e90614ec3565b80156109bb5780601f10610990576101008083540402835291602001916109bb565b820191906000526020600020905b81548152906001019060200180831161099e57829003601f168201915b505050505081526020016004820160009054906101000a900473ffffffffffffffffffffffffffffffffffffffff1673ffffffffffffffffffffffffffffffffffffffff1673ffffffffffffffffffffffffffffffffffffffff168152602001600582018054610a2a90614ec3565b80601f0160208091040260200160405190810160405280929190818152602001828054610a5690614ec3565b8015610aa35780601f10610a7857610100808354040283529160200191610aa3565b820191906000526020600020905b815481529060010190602001808311610a8657829003601f168201915b505050505081526020016006820160009054906101000a900473ffffffffffffffffffffffffffffffffffffffff1673ffffffffffffffffffffffffffffffffffffffff1673ffffffffffffffffffffffffffffffffffffffff168152602001600782018054610b1290614ec3565b80601f0160208091040260200160405190810160405280929190818152602001828054610b3e90614ec3565b8015610b8b5780601f10610b6057610100808354040283529160200191610b8b565b820191906000526020600020905b815481529060010190602001808311610b6e57829003601f168201915b505050505081526020016008820160009054906101000a900473ffffffffffffffffffffffffffffffffffffffff1673ffffffffffffffffffffffffffffffffffffffff1673ffffffffffffffffffffffffffffffffffffffff168152602001600982018054610bfa90614ec3565b80601f0160208091040260200160405190810160405280929190818152602001828054610c2690614ec3565b8015610c735780601f10610c4857610100808354040283529160200191610c73565b820191906000526020600020905b815481529060010190602001808311610c5657829003601f168201915b50505050508152602001600a8201548152602001600b8201548152505081526020019060010190610794565b50505050905090565b6060600060018054905067ffffffffffffffff811115610ccb57610cca6146ed565b5b604051908082528060200260200182016040528015610d0457816020015b610cf1614605565b815260200190600190039081610ce95790505b5090506000805b600180549050811015611316573373ffffffffffffffffffffffffffffffffffffffff16600060018381548110610d4557610d44614ef4565b5b90600052602060002090600c0201600001604051610d639190614fc6565b908152602001604051809103902060040160009054906101000a900473ffffffffffffffffffffffffffffffffffffffff1673ffffffffffffffffffffffffffffffffffffffff160361130357600060018281548110610dc657610dc5614ef4565b5b90600052602060002090600c0201600001604051610de49190614fc6565b908152602001604051809103902060405180610180016040529081600082018054610e0e90614ec3565b80601f0160208091040260200160405190810160405280929190818152602001828054610e3a90614ec3565b8015610e875780601f10610e5c57610100808354040283529160200191610e87565b820191906000526020600020905b815481529060010190602001808311610e6a57829003601f168201915b50505050508152602001600182018054610ea090614ec3565b80601f0160208091040260200160405190810160405280929190818152602001828054610ecc90614ec3565b8015610f195780601f10610eee57610100808354040283529160200191610f19565b820191906000526020600020905b815481529060010190602001808311610efc57829003601f168201915b505050505081526020016002820160009054906101000a900473ffffffffffffffffffffffffffffffffffffffff1673ffffffffffffffffffffffffffffffffffffffff1673ffffffffffffffffffffffffffffffffffffffff168152602001600382018054610f8890614ec3565b80601f0160208091040260200160405190810160405280929190818152602001828054610fb490614ec3565b80156110015780601f10610fd657610100808354040283529160200191611001565b820191906000526020600020905b815481529060010190602001808311610fe457829003601f168201915b505050505081526020016004820160009054906101000a900473ffffffffffffffffffffffffffffffffffffffff1673ffffffffffffffffffffffffffffffffffffffff1673ffffffffffffffffffffffffffffffffffffffff16815260200160058201805461107090614ec3565b80601f016020809104026020016040519081016040528092919081815260200182805461109c90614ec3565b80156110e95780601f106110be576101008083540402835291602001916110e9565b820191906000526020600020905b8154815290600101906020018083116110cc57829003601f168201915b505050505081526020016006820160009054906101000a900473ffffffffffffffffffffffffffffffffffffffff1673ffffffffffffffffffffffffffffffffffffffff1673ffffffffffffffffffffffffffffffffffffffff16815260200160078201805461115890614ec3565b80601f016020809104026020016040519081016040528092919081815260200182805461118490614ec3565b80156111d15780601f106111a6576101008083540402835291602001916111d1565b820191906000526020600020905b8154815290600101906020018083116111b457829003601f168201915b505050505081526020016008820160009054906101000a900473ffffffffffffffffffffffffffffffffffffffff1673ffffffffffffffffffffffffffffffffffffffff1673ffffffffffffffffffffffffffffffffffffffff16815260200160098201805461124090614ec3565b80601f016020809104026020016040519081016040528092919081815260200182805461126c90614ec3565b80156112b95780601f1061128e576101008083540402835291602001916112b9565b820191906000526020600020905b81548152906001019060200180831161129c57829003601f168201915b50505050508152602001600a8201548152602001600b820154815250508383815181106112e9576112e8614ef4565b5b602002602001018190525081806112ff9061500c565b9250505b808061130e9061500c565b915050610d0b565b50808252819250505090565b806000816040516113339190615085565b908152602001604051809103902060040160009054906101000a900473ffffffffffffffffffffffffffffffffffffffff1673ffffffffffffffffffffffffffffffffffffffff163373ffffffffffffffffffffffffffffffffffffffff16146113d2576040517f08c379a00000000000000000000000000000000000000000000000000000000081526004016113c99061510e565b60405180910390fd5b600080836040516113e39190615085565b908152602001604051809103902090506040516020016114029061517a565b604051602081830303815290604052805190602001208160090160405160200161142c9190614fc6565b6040516020818303038152906040528051906020012014611482576040517f08c379a000000000000000000000000000000000000000000000000000000000815260040161147990615201565b60405180910390fd5b600081600b015490508034116114cd576040517f08c379a00000000000000000000000000000000000000000000000000000000081526004016114c49061526d565b60405180910390fd5b60008260020160009054906101000a900473ffffffffffffffffffffffffffffffffffffffff1690508073ffffffffffffffffffffffffffffffffffffffff166108fc662386f26fc1000084611523919061528d565b9081150290604051600060405180830381858888f1935050505015801561154e573d6000803e3d6000fd5b5061158e856040518060400160405280601381526020017f536f6c6420746f204469737472696275746f7200000000000000000000000000815250614487565b7fd52bd61f7c422d441e024604f4517878fd3305d6acf0fe37baef23ed21af6bc93382846040516115c19392919061532e565b60405180910390a15050505050565b816000816040516115e19190615085565b908152602001604051809103902060020160009054906101000a900473ffffffffffffffffffffffffffffffffffffffff1673ffffffffffffffffffffffffffffffffffffffff163373ffffffffffffffffffffffffffffffffffffffff1614611680576040517f08c379a0000000000000000000000000000000000000000000000000000000008152600401611677906153d7565b60405180910390fd5b816000846040516116919190615085565b908152602001604051809103902060040160006101000a81548173ffffffffffffffffffffffffffffffffffffffff021916908373ffffffffffffffffffffffffffffffffffffffff160217905550836000846040516116f19190615085565b9081526020016040518091039020600501908161170e9190615584565b5061174e836040518060400160405280601781526020017f41737369676e656420746f204469737472696275746572000000000000000000815250614487565b50505050565b806000816040516117659190615085565b908152602001604051809103902060060160009054906101000a900473ffffffffffffffffffffffffffffffffffffffff1673ffffffffffffffffffffffffffffffffffffffff163373ffffffffffffffffffffffffffffffffffffffff1614611804576040517f08c379a00000000000000000000000000000000000000000000000000000000081526004016117fb906156c8565b60405180910390fd5b600080836040516118159190615085565b9081526020016040518091039020905060405160200161183490615734565b604051602081830303815290604052805190602001208160090160405160200161185e9190614fc6565b60405160208183030381529060405280519060200120146118b4576040517f08c379a00000000000000000000000000000000000000000000000000000000081526004016118ab906157bb565b60405180910390fd5b600081600b015490508034116118ff576040517f08c379a00000000000000000000000000000000000000000000000000000000081526004016118f69061526d565b60405180910390fd5b60008260040160009054906101000a900473ffffffffffffffffffffffffffffffffffffffff1690508073ffffffffffffffffffffffffffffffffffffffff166108fc662386f26fc1000084611955919061528d565b9081150290604051600060405180830381858888f19350505050158015611980573d6000803e3d6000fd5b506119c0856040518060400160405280601081526020017f536f6c6420746f2052657461696c657200000000000000000000000000000000815250614487565b7fd52bd61f7c422d441e024604f4517878fd3305d6acf0fe37baef23ed21af6bc93382846040516119f39392919061532e565b60405180910390a15050505050565b81600081604051611a139190615085565b908152602001604051809103902060040160009054906101000a900473ffffffffffffffffffffffffffffffffffffffff1673ffffffffffffffffffffffffffffffffffffffff163373ffffffffffffffffffffffffffffffffffffffff1614611ab2576040517f08c379a0000000000000000000000000000000000000000000000000000000008152600401611aa99061510e565b60405180910390fd5b81600084604051611ac39190615085565b908152602001604051809103902060060160006101000a81548173ffffffffffffffffffffffffffffffffffffffff021916908373ffffffffffffffffffffffffffffffffffffffff16021790555083600084604051611b239190615085565b90815260200160405180910390206005019081611b409190615584565b50611b80836040518060400160405280601481526020017f41737369676e656420746f2052657461696c6572000000000000000000000000815250614487565b50505050565b6060600060018054905067ffffffffffffffff811115611ba957611ba86146ed565b5b604051908082528060200260200182016040528015611be257816020015b611bcf614605565b815260200190600190039081611bc75790505b5090506000805b6001805490508110156122db5760008060018381548110611c0d57611c0c614ef4565b5b90600052602060002090600c0201600001604051611c2b9190614fc6565b908152602001604051809103902090506000868015611c9957503373ffffffffffffffffffffffffffffffffffffffff168260040160009054906101000a900473ffffffffffffffffffffffffffffffffffffffff1673ffffffffffffffffffffffffffffffffffffffff16145b80611cfd575086158015611cfc57503373ffffffffffffffffffffffffffffffffffffffff168260060160009054906101000a900473ffffffffffffffffffffffffffffffffffffffff1673ffffffffffffffffffffffffffffffffffffffff16145b5b9050808015611daf5750604051602001611d169061517a565b6040516020818303038152906040528051906020012082600901604051602001611d409190614fc6565b604051602081830303815290604052805190602001201480611dae5750604051602001611d6c90615827565b6040516020818303038152906040528051906020012082600901604051602001611d969190614fc6565b60405160208183030381529060405280519060200120145b5b156122c6578160405180610180016040529081600082018054611dd190614ec3565b80601f0160208091040260200160405190810160405280929190818152602001828054611dfd90614ec3565b8015611e4a5780601f10611e1f57610100808354040283529160200191611e4a565b820191906000526020600020905b815481529060010190602001808311611e2d57829003601f168201915b50505050508152602001600182018054611e6390614ec3565b80601f0160208091040260200160405190810160405280929190818152602001828054611e8f90614ec3565b8015611edc5780601f10611eb157610100808354040283529160200191611edc565b820191906000526020600020905b815481529060010190602001808311611ebf57829003601f168201915b505050505081526020016002820160009054906101000a900473ffffffffffffffffffffffffffffffffffffffff1673ffffffffffffffffffffffffffffffffffffffff1673ffffffffffffffffffffffffffffffffffffffff168152602001600382018054611f4b90614ec3565b80601f0160208091040260200160405190810160405280929190818152602001828054611f7790614ec3565b8015611fc45780601f10611f9957610100808354040283529160200191611fc4565b820191906000526020600020905b815481529060010190602001808311611fa757829003601f168201915b505050505081526020016004820160009054906101000a900473ffffffffffffffffffffffffffffffffffffffff1673ffffffffffffffffffffffffffffffffffffffff1673ffffffffffffffffffffffffffffffffffffffff16815260200160058201805461203390614ec3565b80601f016020809104026020016040519081016040528092919081815260200182805461205f90614ec3565b80156120ac5780601f10612081576101008083540402835291602001916120ac565b820191906000526020600020905b81548152906001019060200180831161208f57829003601f168201915b505050505081526020016006820160009054906101000a900473ffffffffffffffffffffffffffffffffffffffff1673ffffffffffffffffffffffffffffffffffffffff1673ffffffffffffffffffffffffffffffffffffffff16815260200160078201805461211b90614ec3565b80601f016020809104026020016040519081016040528092919081815260200182805461214790614ec3565b80156121945780601f1061216957610100808354040283529160200191612194565b820191906000526020600020905b81548152906001019060200180831161217757829003601f168201915b505050505081526020016008820160009054906101000a900473ffffffffffffffffffffffffffffffffffffffff1673ffffffffffffffffffffffffffffffffffffffff1673ffffffffffffffffffffffffffffffffffffffff16815260200160098201805461220390614ec3565b80601f016020809104026020016040519081016040528092919081815260200182805461222f90614ec3565b801561227c5780601f106122515761010080835404028352916020019161227c565b820191906000526020600020905b81548152906001019060200180831161225f57829003601f168201915b50505050508152602001600a8201548152602001600b820154815250508585815181106122ac576122ab614ef4565b5b602002602001018190525083806122c29061500c565b9450505b505080806122d39061500c565b915050611be9565b508082528192505050919050565b6060600060018054905067ffffffffffffffff81111561230c5761230b6146ed565b5b60405190808252806020026020018201604052801561234557816020015b612332614605565b81526020019060019003908161232a5790505b5090506000805b600180549050811015612956578460405160200161236a9190615085565b6040516020818303038152906040528051906020012060006001838154811061239657612395614ef4565b5b90600052602060002090600c02016000016040516123b49190614fc6565b90815260200160405180910390206009016040516020016123d59190614fc6565b60405160208183030381529060405280519060200120036129435760006001828154811061240657612405614ef4565b5b90600052602060002090600c02016000016040516124249190614fc6565b90815260200160405180910390206040518061018001604052908160008201805461244e90614ec3565b80601f016020809104026020016040519081016040528092919081815260200182805461247a90614ec3565b80156124c75780601f1061249c576101008083540402835291602001916124c7565b820191906000526020600020905b8154815290600101906020018083116124aa57829003601f168201915b505050505081526020016001820180546124e090614ec3565b80601f016020809104026020016040519081016040528092919081815260200182805461250c90614ec3565b80156125595780601f1061252e57610100808354040283529160200191612559565b820191906000526020600020905b81548152906001019060200180831161253c57829003601f168201915b505050505081526020016002820160009054906101000a900473ffffffffffffffffffffffffffffffffffffffff1673ffffffffffffffffffffffffffffffffffffffff1673ffffffffffffffffffffffffffffffffffffffff1681526020016003820180546125c890614ec3565b80601f01602080910402602001604051908101604052809291908181526020018280546125f490614ec3565b80156126415780601f1061261657610100808354040283529160200191612641565b820191906000526020600020905b81548152906001019060200180831161262457829003601f168201915b505050505081526020016004820160009054906101000a900473ffffffffffffffffffffffffffffffffffffffff1673ffffffffffffffffffffffffffffffffffffffff1673ffffffffffffffffffffffffffffffffffffffff1681526020016005820180546126b090614ec3565b80601f01602080910402602001604051908101604052809291908181526020018280546126dc90614ec3565b80156127295780601f106126fe57610100808354040283529160200191612729565b820191906000526020600020905b81548152906001019060200180831161270c57829003601f168201915b505050505081526020016006820160009054906101000a900473ffffffffffffffffffffffffffffffffffffffff1673ffffffffffffffffffffffffffffffffffffffff1673ffffffffffffffffffffffffffffffffffffffff16815260200160078201805461279890614ec3565b80601f01602080910402602001604051908101604052809291908181526020018280546127c490614ec3565b80156128115780601f106127e657610100808354040283529160200191612811565b820191906000526020600020905b8154815290600101906020018083116127f457829003601f168201915b505050505081526020016008820160009054906101000a900473ffffffffffffffffffffffffffffffffffffffff1673ffffffffffffffffffffffffffffffffffffffff1673ffffffffffffffffffffffffffffffffffffffff16815260200160098201805461288090614ec3565b80601f01602080910402602001604051908101604052809291908181526020018280546128ac90614ec3565b80156128f95780601f106128ce576101008083540402835291602001916128f9565b820191906000526020600020905b8154815290600101906020018083116128dc57829003601f168201915b50505050508152602001600a8201548152602001600b8201548152505083838151811061292957612928614ef4565b5b6020026020010181905250818061293f9061500c565b9250505b808061294e9061500c565b91505061234c565b508082528192505050919050565b6060600060018054905067ffffffffffffffff811115612987576129866146ed565b5b6040519080825280602002602001820160405280156129c057816020015b6129ad614605565b8152602001906001900390816129a55790505b5090506000805b600180549050811015612fd2573373ffffffffffffffffffffffffffffffffffffffff16600060018381548110612a0157612a00614ef4565b5b90600052602060002090600c0201600001604051612a1f9190614fc6565b908152602001604051809103902060060160009054906101000a900473ffffffffffffffffffffffffffffffffffffffff1673ffffffffffffffffffffffffffffffffffffffff1603612fbf57600060018281548110612a8257612a81614ef4565b5b90600052602060002090600c0201600001604051612aa09190614fc6565b908152602001604051809103902060405180610180016040529081600082018054612aca90614ec3565b80601f0160208091040260200160405190810160405280929190818152602001828054612af690614ec3565b8015612b435780601f10612b1857610100808354040283529160200191612b43565b820191906000526020600020905b815481529060010190602001808311612b2657829003601f168201915b50505050508152602001600182018054612b5c90614ec3565b80601f0160208091040260200160405190810160405280929190818152602001828054612b8890614ec3565b8015612bd55780601f10612baa57610100808354040283529160200191612bd5565b820191906000526020600020905b815481529060010190602001808311612bb857829003601f168201915b505050505081526020016002820160009054906101000a900473ffffffffffffffffffffffffffffffffffffffff1673ffffffffffffffffffffffffffffffffffffffff1673ffffffffffffffffffffffffffffffffffffffff168152602001600382018054612c4490614ec3565b80601f0160208091040260200160405190810160405280929190818152602001828054612c7090614ec3565b8015612cbd5780601f10612c9257610100808354040283529160200191612cbd565b820191906000526020600020905b815481529060010190602001808311612ca057829003601f168201915b505050505081526020016004820160009054906101000a900473ffffffffffffffffffffffffffffffffffffffff1673ffffffffffffffffffffffffffffffffffffffff1673ffffffffffffffffffffffffffffffffffffffff168152602001600582018054612d2c90614ec3565b80601f0160208091040260200160405190810160405280929190818152602001828054612d5890614ec3565b8015612da55780601f10612d7a57610100808354040283529160200191612da5565b820191906000526020600020905b815481529060010190602001808311612d8857829003601f168201915b505050505081526020016006820160009054906101000a900473ffffffffffffffffffffffffffffffffffffffff1673ffffffffffffffffffffffffffffffffffffffff1673ffffffffffffffffffffffffffffffffffffffff168152602001600782018054612e1490614ec3565b80601f0160208091040260200160405190810160405280929190818152602001828054612e4090614ec3565b8015612e8d5780601f10612e6257610100808354040283529160200191612e8d565b820191906000526020600020905b815481529060010190602001808311612e7057829003601f168201915b505050505081526020016008820160009054906101000a900473ffffffffffffffffffffffffffffffffffffffff1673ffffffffffffffffffffffffffffffffffffffff1673ffffffffffffffffffffffffffffffffffffffff168152602001600982018054612efc90614ec3565b80601f0160208091040260200160405190810160405280929190818152602001828054612f2890614ec3565b8015612f755780601f10612f4a57610100808354040283529160200191612f75565b820191906000526020600020905b815481529060010190602001808311612f5857829003601f168201915b50505050508152602001600a8201548152602001600b82015481525050838381518110612fa557612fa4614ef4565b5b60200260200101819052508180612fbb9061500c565b9250505b8080612fca9061500c565b9150506129c7565b50808252819250505090565b60008085604051612fef9190615085565b9081526020016040518091039020600001805461300b90614ec3565b90501461304d576040517f08c379a0000000000000000000000000000000000000000000000000000000008152600401613044906158ae565b60405180910390fd5b60006040518061018001604052808681526020018581526020013373ffffffffffffffffffffffffffffffffffffffff168152602001848152602001600073ffffffffffffffffffffffffffffffffffffffff168152602001604051806020016040528060008152508152602001600073ffffffffffffffffffffffffffffffffffffffff168152602001604051806020016040528060008152508152602001600073ffffffffffffffffffffffffffffffffffffffff1681526020016040518060400160405280600c81526020017f4d616e75666163747572656400000000000000000000000000000000000000008152508152602001428152602001838152509050806000866040516131629190615085565b908152602001604051809103902060008201518160000190816131859190615584565b50602082015181600101908161319b9190615584565b5060408201518160020160006101000a81548173ffffffffffffffffffffffffffffffffffffffff021916908373ffffffffffffffffffffffffffffffffffffffff16021790555060608201518160030190816131f89190615584565b5060808201518160040160006101000a81548173ffffffffffffffffffffffffffffffffffffffff021916908373ffffffffffffffffffffffffffffffffffffffff16021790555060a08201518160050190816132559190615584565b5060c08201518160060160006101000a81548173ffffffffffffffffffffffffffffffffffffffff021916908373ffffffffffffffffffffffffffffffffffffffff16021790555060e08201518160070190816132b29190615584565b506101008201518160080160006101000a81548173ffffffffffffffffffffffffffffffffffffffff021916908373ffffffffffffffffffffffffffffffffffffffff1602179055506101208201518160090190816133119190615584565b5061014082015181600a015561016082015181600b015590505060018190806001815401808255809150506001900390600052602060002090600c0201600090919091909150600082015181600001908161336c9190615584565b5060208201518160010190816133829190615584565b5060408201518160020160006101000a81548173ffffffffffffffffffffffffffffffffffffffff021916908373ffffffffffffffffffffffffffffffffffffffff16021790555060608201518160030190816133df9190615584565b5060808201518160040160006101000a81548173ffffffffffffffffffffffffffffffffffffffff021916908373ffffffffffffffffffffffffffffffffffffffff16021790555060a082015181600501908161343c9190615584565b5060c08201518160060160006101000a81548173ffffffffffffffffffffffffffffffffffffffff021916908373ffffffffffffffffffffffffffffffffffffffff16021790555060e08201518160070190816134999190615584565b506101008201518160080160006101000a81548173ffffffffffffffffffffffffffffffffffffffff021916908373ffffffffffffffffffffffffffffffffffffffff1602179055506101208201518160090190816134f89190615584565b5061014082015181600a015561016082015181600b015550507f89cf3cad9d8e7dfcad0ba060ad88d3ff81ebc1faf045b8a6ec182a38a71dbaab8533426040516135449392919061591a565b60405180910390a15050505050565b6060600060018054905067ffffffffffffffff811115613576576135756146ed565b5b6040519080825280602002602001820160405280156135af57816020015b61359c614605565b8152602001906001900390816135945790505b5090506000805b600180549050811015613bc1573373ffffffffffffffffffffffffffffffffffffffff166000600183815481106135f0576135ef614ef4565b5b90600052602060002090600c020160000160405161360e9190614fc6565b908152602001604051809103902060080160009054906101000a900473ffffffffffffffffffffffffffffffffffffffff1673ffffffffffffffffffffffffffffffffffffffff1603613bae5760006001828154811061367157613670614ef4565b5b90600052602060002090600c020160000160405161368f9190614fc6565b9081526020016040518091039020604051806101800160405290816000820180546136b990614ec3565b80601f01602080910402602001604051908101604052809291908181526020018280546136e590614ec3565b80156137325780601f1061370757610100808354040283529160200191613732565b820191906000526020600020905b81548152906001019060200180831161371557829003601f168201915b5050505050815260200160018201805461374b90614ec3565b80601f016020809104026020016040519081016040528092919081815260200182805461377790614ec3565b80156137c45780601f10613799576101008083540402835291602001916137c4565b820191906000526020600020905b8154815290600101906020018083116137a757829003601f168201915b505050505081526020016002820160009054906101000a900473ffffffffffffffffffffffffffffffffffffffff1673ffffffffffffffffffffffffffffffffffffffff1673ffffffffffffffffffffffffffffffffffffffff16815260200160038201805461383390614ec3565b80601f016020809104026020016040519081016040528092919081815260200182805461385f90614ec3565b80156138ac5780601f10613881576101008083540402835291602001916138ac565b820191906000526020600020905b81548152906001019060200180831161388f57829003601f168201915b505050505081526020016004820160009054906101000a900473ffffffffffffffffffffffffffffffffffffffff1673ffffffffffffffffffffffffffffffffffffffff1673ffffffffffffffffffffffffffffffffffffffff16815260200160058201805461391b90614ec3565b80601f016020809104026020016040519081016040528092919081815260200182805461394790614ec3565b80156139945780601f1061396957610100808354040283529160200191613994565b820191906000526020600020905b81548152906001019060200180831161397757829003601f168201915b505050505081526020016006820160009054906101000a900473ffffffffffffffffffffffffffffffffffffffff1673ffffffffffffffffffffffffffffffffffffffff1673ffffffffffffffffffffffffffffffffffffffff168152602001600782018054613a0390614ec3565b80601f0160208091040260200160405190810160405280929190818152602001828054613a2f90614ec3565b8015613a7c5780601f10613a5157610100808354040283529160200191613a7c565b820191906000526020600020905b815481529060010190602001808311613a5f57829003601f168201915b505050505081526020016008820160009054906101000a900473ffffffffffffffffffffffffffffffffffffffff1673ffffffffffffffffffffffffffffffffffffffff1673ffffffffffffffffffffffffffffffffffffffff168152602001600982018054613aeb90614ec3565b80601f0160208091040260200160405190810160405280929190818152602001828054613b1790614ec3565b8015613b645780601f10613b3957610100808354040283529160200191613b64565b820191906000526020600020905b815481529060010190602001808311613b4757829003601f168201915b50505050508152602001600a8201548152602001600b82015481525050838381518110613b9457613b93614ef4565b5b60200260200101819052508180613baa9061500c565b9250505b8080613bb99061500c565b9150506135b6565b50808252819250505090565b6060600060018054905067ffffffffffffffff811115613bf057613bef6146ed565b5b604051908082528060200260200182016040528015613c2957816020015b613c16614605565b815260200190600190039081613c0e5790505b5090506000805b60018054905081101561423b573373ffffffffffffffffffffffffffffffffffffffff16600060018381548110613c6a57613c69614ef4565b5b90600052602060002090600c0201600001604051613c889190614fc6565b908152602001604051809103902060020160009054906101000a900473ffffffffffffffffffffffffffffffffffffffff1673ffffffffffffffffffffffffffffffffffffffff160361422857600060018281548110613ceb57613cea614ef4565b5b90600052602060002090600c0201600001604051613d099190614fc6565b908152602001604051809103902060405180610180016040529081600082018054613d3390614ec3565b80601f0160208091040260200160405190810160405280929190818152602001828054613d5f90614ec3565b8015613dac5780601f10613d8157610100808354040283529160200191613dac565b820191906000526020600020905b815481529060010190602001808311613d8f57829003601f168201915b50505050508152602001600182018054613dc590614ec3565b80601f0160208091040260200160405190810160405280929190818152602001828054613df190614ec3565b8015613e3e5780601f10613e1357610100808354040283529160200191613e3e565b820191906000526020600020905b815481529060010190602001808311613e2157829003601f168201915b505050505081526020016002820160009054906101000a900473ffffffffffffffffffffffffffffffffffffffff1673ffffffffffffffffffffffffffffffffffffffff1673ffffffffffffffffffffffffffffffffffffffff168152602001600382018054613ead90614ec3565b80601f0160208091040260200160405190810160405280929190818152602001828054613ed990614ec3565b8015613f265780601f10613efb57610100808354040283529160200191613f26565b820191906000526020600020905b815481529060010190602001808311613f0957829003601f168201915b505050505081526020016004820160009054906101000a900473ffffffffffffffffffffffffffffffffffffffff1673ffffffffffffffffffffffffffffffffffffffff1673ffffffffffffffffffffffffffffffffffffffff168152602001600582018054613f9590614ec3565b80601f0160208091040260200160405190810160405280929190818152602001828054613fc190614ec3565b801561400e5780601f10613fe35761010080835404028352916020019161400e565b820191906000526020600020905b815481529060010190602001808311613ff157829003601f168201915b505050505081526020016006820160009054906101000a900473ffffffffffffffffffffffffffffffffffffffff1673ffffffffffffffffffffffffffffffffffffffff1673ffffffffffffffffffffffffffffffffffffffff16815260200160078201805461407d90614ec3565b80601f01602080910402602001604051908101604052809291908181526020018280546140a990614ec3565b80156140f65780601f106140cb576101008083540402835291602001916140f6565b820191906000526020600020905b8154815290600101906020018083116140d957829003601f168201915b505050505081526020016008820160009054906101000a900473ffffffffffffffffffffffffffffffffffffffff1673ffffffffffffffffffffffffffffffffffffffff1673ffffffffffffffffffffffffffffffffffffffff16815260200160098201805461416590614ec3565b80601f016020809104026020016040519081016040528092919081815260200182805461419190614ec3565b80156141de5780601f106141b3576101008083540402835291602001916141de565b820191906000526020600020905b8154815290600101906020018083116141c157829003601f168201915b50505050508152602001600a8201548152602001600b8201548152505083838151811061420e5761420d614ef4565b5b602002602001018190525081806142249061500c565b9250505b80806142339061500c565b915050613c30565b50808252819250505090565b600080826040516142589190615085565b90815260200160405180910390209050604051602001614277906159b7565b60405160208183030381529060405280519060200120816009016040516020016142a19190614fc6565b60405160208183030381529060405280519060200120146142f7576040517f08c379a00000000000000000000000000000000000000000000000000000000081526004016142ee90615a3e565b60405180910390fd5b600081600b01549050803411614342576040517f08c379a00000000000000000000000000000000000000000000000000000000081526004016143399061526d565b60405180910390fd5b60008260060160009054906101000a900473ffffffffffffffffffffffffffffffffffffffff1690508073ffffffffffffffffffffffffffffffffffffffff166108fc662386f26fc1000084614398919061528d565b9081150290604051600060405180830381858888f193505050501580156143c3573d6000803e3d6000fd5b50338360080160006101000a81548173ffffffffffffffffffffffffffffffffffffffff021916908373ffffffffffffffffffffffffffffffffffffffff160217905550614446846040518060400160405280601081526020017f536f6c6420746f20437573746f6d657200000000000000000000000000000000815250614487565b7fd52bd61f7c422d441e024604f4517878fd3305d6acf0fe37baef23ed21af6bc93382846040516144799392919061532e565b60405180910390a150505050565b600080836040516144989190615085565b908152602001604051809103902060000180546144b490614ec3565b9050116144f6576040517f08c379a00000000000000000000000000000000000000000000000000000000081526004016144ed90615ad0565b60405180910390fd5b600080836040516145079190615085565b908152602001604051809103902090508060090160405160200161452b9190614fc6565b60405160208183030381529060405280519060200120826040516020016145529190615085565b60405160208183030381529060405280519060200120036145a8576040517f08c379a000000000000000000000000000000000000000000000000000000000815260040161459f90615b62565b60405180910390fd5b818160090190816145b99190615584565b504281600a01819055507f89cf3cad9d8e7dfcad0ba060ad88d3ff81ebc1faf045b8a6ec182a38a71dbaab833384426040516145f89493929190615b82565b60405180910390a1505050565b6040518061018001604052806060815260200160608152602001600073ffffffffffffffffffffffffffffffffffffffff16815260200160608152602001600073ffffffffffffffffffffffffffffffffffffffff16815260200160608152602001600073ffffffffffffffffffffffffffffffffffffffff16815260200160608152602001600073ffffffffffffffffffffffffffffffffffffffff1681526020016060815260200160008152602001600081525090565b6000604051905090565b600080fd5b600080fd5b600080fd5b600080fd5b6000601f19601f8301169050919050565b7f4e487b7100000000000000000000000000000000000000000000000000000000600052604160045260246000fd5b614725826146dc565b810181811067ffffffffffffffff82111715614744576147436146ed565b5b80604052505050565b60006147576146be565b9050614763828261471c565b919050565b600067ffffffffffffffff821115614783576147826146ed565b5b61478c826146dc565b9050602081019050919050565b82818337600083830152505050565b60006147bb6147b684614768565b61474d565b9050828152602081018484840111156147d7576147d66146d7565b5b6147e2848285614799565b509392505050565b600082601f8301126147ff576147fe6146d2565b5b813561480f8482602086016147a8565b91505092915050565b60006020828403121561482e5761482d6146c8565b5b600082013567ffffffffffffffff81111561484c5761484b6146cd565b5b614858848285016147ea565b91505092915050565b600081519050919050565b600082825260208201905092915050565b60005b8381101561489b578082015181840152602081019050614880565b60008484015250505050565b60006148b282614861565b6148bc818561486c565b93506148cc81856020860161487d565b6148d5816146dc565b840191505092915050565b600073ffffffffffffffffffffffffffffffffffffffff82169050919050565b600061490b826148e0565b9050919050565b61491b81614900565b82525050565b6000819050919050565b61493481614921565b82525050565b6000610180820190508181036000830152614955818f6148a7565b90508181036020830152614969818e6148a7565b9050614978604083018d614912565b818103606083015261498a818c6148a7565b9050614999608083018b614912565b81810360a08301526149ab818a6148a7565b90506149ba60c0830189614912565b81810360e08301526149cc81886148a7565b90506149dc610100830187614912565b8181036101208301526149ef81866148a7565b90506149ff61014083018561492b565b614a0d61016083018461492b565b9d9c50505050505050505050505050565b600081519050919050565b600082825260208201905092915050565b6000819050602082019050919050565b600082825260208201905092915050565b6000614a6682614861565b614a708185614a4a565b9350614a8081856020860161487d565b614a89816146dc565b840191505092915050565b614a9d81614900565b82525050565b614aac81614921565b82525050565b6000610180830160008301518482036000860152614ad08282614a5b565b91505060208301518482036020860152614aea8282614a5b565b9150506040830151614aff6040860182614a94565b5060608301518482036060860152614b178282614a5b565b9150506080830151614b2c6080860182614a94565b5060a083015184820360a0860152614b448282614a5b565b91505060c0830151614b5960c0860182614a94565b5060e083015184820360e0860152614b718282614a5b565b915050610100830151614b88610100860182614a94565b50610120830151848203610120860152614ba28282614a5b565b915050610140830151614bb9610140860182614aa3565b50610160830151614bce610160860182614aa3565b508091505092915050565b6000614be58383614ab2565b905092915050565b6000602082019050919050565b6000614c0582614a1e565b614c0f8185614a29565b935083602082028501614c2185614a3a565b8060005b85811015614c5d5784840389528151614c3e8582614bd9565b9450614c4983614bed565b925060208a01995050600181019050614c25565b50829750879550505050505092915050565b60006020820190508181036000830152614c898184614bfa565b905092915050565b614c9a81614900565b8114614ca557600080fd5b50565b600081359050614cb781614c91565b92915050565b600080600060608486031215614cd657614cd56146c8565b5b600084013567ffffffffffffffff811115614cf457614cf36146cd565b5b614d00868287016147ea565b935050602084013567ffffffffffffffff811115614d2157614d206146cd565b5b614d2d868287016147ea565b9250506040614d3e86828701614ca8565b9150509250925092565b60008115159050919050565b614d5d81614d48565b8114614d6857600080fd5b50565b600081359050614d7a81614d54565b92915050565b600060208284031215614d9657614d956146c8565b5b6000614da484828501614d6b565b91505092915050565b614db681614921565b8114614dc157600080fd5b50565b600081359050614dd381614dad565b92915050565b60008060008060808587031215614df357614df26146c8565b5b600085013567ffffffffffffffff811115614e1157614e106146cd565b5b614e1d878288016147ea565b945050602085013567ffffffffffffffff811115614e3e57614e3d6146cd565b5b614e4a878288016147ea565b935050604085013567ffffffffffffffff811115614e6b57614e6a6146cd565b5b614e77878288016147ea565b9250506060614e8887828801614dc4565b91505092959194509250565b7f4e487b7100000000000000000000000000000000000000000000000000000000600052602260045260246000fd5b60006002820490506001821680614edb57607f821691505b602082108103614eee57614eed614e94565b5b50919050565b7f4e487b7100000000000000000000000000000000000000000000000000000000600052603260045260246000fd5b600081905092915050565b60008190508160005260206000209050919050565b60008154614f5081614ec3565b614f5a8186614f23565b94506001821660008114614f755760018114614f8a57614fbd565b60ff1983168652811515820286019350614fbd565b614f9385614f2e565b60005b83811015614fb557815481890152600182019150602081019050614f96565b838801955050505b50505092915050565b6000614fd28284614f43565b915081905092915050565b7f4e487b7100000000000000000000000000000000000000000000000000000000600052601160045260246000fd5b600061501782614921565b91507fffffffffffffffffffffffffffffffffffffffffffffffffffffffffffffffff820361504957615048614fdd565b5b600182019050919050565b600061505f82614861565b6150698185614f23565b935061507981856020860161487d565b80840191505092915050565b60006150918284615054565b915081905092915050565b7f4f6e6c7920746865206469737472696275746f722063616e20706572666f726d60008201527f207468697320616374696f6e0000000000000000000000000000000000000000602082015250565b60006150f8602c8361486c565b91506151038261509c565b604082019050919050565b60006020820190508181036000830152615127816150eb565b9050919050565b7f41737369676e656420746f204469737472696275746572000000000000000000600082015250565b6000615164601783614f23565b915061516f8261512e565b601782019050919050565b600061518582615157565b9150819050919050565b7f50726f64756374206d75737420626520696e20274d616e75666163747572656460008201527f2720746f2073656e6420746f206469737472696275746f720000000000000000602082015250565b60006151eb60388361486c565b91506151f68261518f565b604082019050919050565b6000602082019050818103600083015261521a816151de565b9050919050565b7f496e73756666696369656e74207061796d656e74000000000000000000000000600082015250565b600061525760148361486c565b915061526282615221565b602082019050919050565b600060208201905081810360008301526152868161524a565b9050919050565b600061529882614921565b91506152a383614921565b92508282026152b181614921565b915082820484148315176152c8576152c7614fdd565b5b5092915050565b6000819050919050565b60006152f46152ef6152ea846148e0565b6152cf565b6148e0565b9050919050565b6000615306826152d9565b9050919050565b6000615318826152fb565b9050919050565b6153288161530d565b82525050565b60006060820190506153436000830186614912565b615350602083018561531f565b61535d604083018461492b565b949350505050565b7f4f6e6c7920746865206d616e7566616374757265722063616e20706572666f7260008201527f6d207468697320616374696f6e00000000000000000000000000000000000000602082015250565b60006153c1602d8361486c565b91506153cc82615365565b604082019050919050565b600060208201905081810360008301526153f0816153b4565b9050919050565b60006020601f8301049050919050565b600082821b905092915050565b6000600883026154447fffffffffffffffffffffffffffffffffffffffffffffffffffffffffffffffff82615407565b61544e8683615407565b95508019841693508086168417925050509392505050565b600061548161547c61547784614921565b6152cf565b614921565b9050919050565b6000819050919050565b61549b83615466565b6154af6154a782615488565b848454615414565b825550505050565b600090565b6154c46154b7565b6154cf818484615492565b505050565b5b818110156154f3576154e86000826154bc565b6001810190506154d5565b5050565b601f8211156155385761550981614f2e565b615512846153f7565b81016020851015615521578190505b61553561552d856153f7565b8301826154d4565b50505b505050565b600082821c905092915050565b600061555b6000198460080261553d565b1980831691505092915050565b6000615574838361554a565b9150826002028217905092915050565b61558d82614861565b67ffffffffffffffff8111156155a6576155a56146ed565b5b6155b08254614ec3565b6155bb8282856154f7565b600060209050601f8311600181146155ee57600084156155dc578287015190505b6155e68582615568565b86555061564e565b601f1984166155fc86614f2e565b60005b82811015615624578489015182556001820191506020850194506020810190506155ff565b86831015615641578489015161563d601f89168261554a565b8355505b6001600288020188555050505b505050505050565b7f4f6e6c79207468652072657461696c65722063616e20706572666f726d20746860008201527f697320616374696f6e0000000000000000000000000000000000000000000000602082015250565b60006156b260298361486c565b91506156bd82615656565b604082019050919050565b600060208201905081810360008301526156e1816156a5565b9050919050565b7f41737369676e656420746f000000000000000000000000000000000000000000600082015250565b600061571e600b83614f23565b9150615729826156e8565b600b82019050919050565b600061573f82615711565b9150819050919050565b7f50726f64756374206d75737420626520696e2027536f6c6420746f204469737460008201527f72696275746f722720746f2073656e6420746f2072657461696c657200000000602082015250565b60006157a5603c8361486c565b91506157b082615749565b604082019050919050565b600060208201905081810360008301526157d481615798565b9050919050565b7f41737369676e656420746f2052657461696c6572000000000000000000000000600082015250565b6000615811601483614f23565b915061581c826157db565b601482019050919050565b600061583282615804565b9150819050919050565b7f50726f647563742077697468207468697320756e69717565206964656e74696660008201527f69657220616c7265616479206578697374730000000000000000000000000000602082015250565b600061589860328361486c565b91506158a38261583c565b604082019050919050565b600060208201905081810360008301526158c78161588b565b9050919050565b7f4d616e7566616374757265640000000000000000000000000000000000000000600082015250565b6000615904600c8361486c565b915061590f826158ce565b602082019050919050565b6000608082019050818103600083015261593481866148a7565b90506159436020830185614912565b8181036040830152615954816158f7565b9050615963606083018461492b565b949350505050565b7f536f6c6420746f2052657461696c657200000000000000000000000000000000600082015250565b60006159a1601083614f23565b91506159ac8261596b565b601082019050919050565b60006159c282615994565b9150819050919050565b7f50726f64756374206d75737420626520696e2027536f6c6420746f205265746160008201527f696c65722720746f206275790000000000000000000000000000000000000000602082015250565b6000615a28602c8361486c565b9150615a33826159cc565b604082019050919050565b60006020820190508181036000830152615a5781615a1b565b9050919050565b7f50726f647563742077697468207468697320756e69717565206964656e74696660008201527f69657220646f6573206e6f742065786973740000000000000000000000000000602082015250565b6000615aba60328361486c565b9150615ac582615a5e565b604082019050919050565b60006020820190508181036000830152615ae981615aad565b9050919050565b7f4e657720737461747573206d75737420626520646966666572656e742066726f60008201527f6d207468652063757272656e7420737461747573000000000000000000000000602082015250565b6000615b4c60348361486c565b9150615b5782615af0565b604082019050919050565b60006020820190508181036000830152615b7b81615b3f565b9050919050565b60006080820190508181036000830152615b9c81876148a7565b9050615bab6020830186614912565b8181036040830152615bbd81856148a7565b9050615bcc606083018461492b565b9594505050505056fea264697066735822122087410db414bd1a081d7441f219b2b10a291574e69e292eff49c9552b4dda548364736f6c63430008130033",
  "linkReferences": {},
  "deployedLinkReferences": {}
}